:020000040800F2
:10000000A804002001010008090100080B010008F4
:100010000D0100080F010008110100080000000098
:1000200000000000000000000000000013010008B4
:100030001501000800000000170100081901000860
:100040001B0100081B0100081B0100081B01000820
:100050001B0100081B0100081B0100081B01000810
:100060001B0100081B0100081B0100081B01000800
:100070001B0100081B0100081B0100081B010008F0
:100080001B0100081B0100081B0100081B010008E0
:100090001B0100081B0100081B0100081B010008D0
:1000A0001B0100081B0100081B0100081B010008C0
:1000B0001B010008FD0E00081B0100081B010008C1
:1000C0001B0100081B0100081B0100081B010008A0
:1000D0001B0100081B010008C51000081B010008D7
:1000E0001B0100081B0100081B010008DFF80CD0F1
:1000F00000F06AFA004800478D1E0008A80400209E
:100100000648804706480047FEE7FEE7FEE7FEE7B1
:10011000FEE7FEE7FEE7FEE7FEE7FEE79D0E0008CE
:10012000ED000008C10F80EAE0700844CA0796237A
:10013000002100F063B800F0004230F000400AD027
:10014000C10D01F56071C0F3160042EA0151C20809
:1001500040071143704700200146704730B50B46F9
:10016000014600202022012409E021FA02F59D42E7
:1001700005D303FA02F5491B04FA02F52844151EBB
:10018000A2F10102F1DC30BD2DE9F05F054600204F
:1001900092469B4688460646814640241BE02846F8
:1001A00041464746224600F030FA53465A46C01AA6
:1001B000914110D311461846224600F017FA2D1A25
:1001C00067EB01084F4622460120002100F00EFA9D
:1001D00017EB00094E41201EA4F10104DFDC484664
:1001E00031462A464346BDE8F09F0029A8BF704724
:1001F000401C490008BF20F00100704710B4B0FA5D
:1002000080FC00FA0CF050EA010404BF10BC7047F7
:1002100049B1CCF1200421FA04F411FA0CF118BF11
:10022000012121430843A3EB0C01CB1D4FEA0061E0
:100230004FEA102042BF002010BC704700EBC350B3
:1002400010440029A4BF10BC7047401C490008BFDF
:1002500020F0010010BC70472DE9FE4F804681EA76
:100260000300C00F0C46009021F0004123F0004530
:10027000B8EB0200A94105D24046214690461C46F3
:100280000B46024623F00040104347D0270DC7F32A
:100290000A00C3F30A510290401A019040286BDA19
:1002A000C3F3130040F4801B0098924620B1002352
:1002B000D2EB030A63EB0B0B01985946C0F14002E5
:1002C000504600F093F906460D4650465946019AAD
:1002D00000F0ABF910EB08006141002487EA1152ED
:1002E00084EAE7731A4340D0009A62B3019A012A64
:1002F0004FEA075215DC001B61EB02014FF0004290
:1003000002EA0752CDE90042001C41F58011324655
:100310002B4600F0ABF903B0BDE8F08F4046214614
:10032000F9E7001B61EB0201001C41F58013001886
:100330005B412018A2F5001747EB030140EAD57096
:10034000B6196D4111E06D084FEA360645EAC075F1
:100350004FEA0752001B61EB0201001C41F58011BE
:1003600049084FEA30000019514132462B4603B08C
:10037000BDE8F04F00F06BB9009801224000002367
:10038000D0EB020263EBE073009821464FEAE07481
:10039000B8EB000061EB0401E9E783F000435BE7A1
:1003A00081F0004158E72DE9FE4F81EA030404F093
:1003B000004421F0004100944FF0000B23F0004373
:1003C00050EA01045ED052EA03045BD0C3F30A543E
:1003D000C1F30A552C44A4F2F3340194A0FB025457
:1003E000C1F3130141F48011C3F3130343F48013E9
:1003F00001FB024400FB034E840A970A44EA81543D
:1004000047EA8357A4FB076802958D0A05FB078519
:100410004FEA932C04FB0C542705029D4FEA065823
:1004200047EA1637B5EB08056EEB070C870E920E00
:1004300047EA811742EA8312A7FB0201B6EB0B01E0
:1004400064EB00042B0D43EA0C335E1844EB1C50A4
:10045000DA465146E7FB0201C5F313044FEA0B33BA
:1004600043EA14534FEA0432019C43EA0603A4F121
:100470000C040294009CCDE900B400F0F7F803B03E
:10048000BDE8F08F00200146F9E72DE9F04D81EA43
:10049000030404F0004B21F0004514464FF0000A1D
:1004A00023F0004150EA050220D054EA01021DD099
:1004B000C5F30A570246C5F31303C1F31300C1F392
:1004C0000A5640F4801543F48013A7EB0608101B6E
:1004D000D64608F2FD3873EB050002D308F1010897
:1004E00001E092185B41B8F1000F03DA00200146E9
:1004F000BDE8F08D00204FF48011064684460EE0E2
:10050000171B73EB050705D3121B63EB05030643AB
:100510004CEA010C49084FEA300092185B4150EA5E
:100520000107EDD152EA030012D082EA040083EA07
:100530000501084305D0101BAB4106D20122002360
:1005400006E000224FF0004302E06FF0010253107A
:100550001AEB06004CEB085110EB0A0041EB0B01C3
:10056000BDE8F04D00F073B8C1F30A52C1F31301B6
:1005700040F2FF3341F480119A4202DA0020014632
:10058000704740F233439A42A2F2334202DC5242B5
:1005900000F03BB800F02AB830B5041E71F1000439
:1005A00004DB4FF00044404264EB0101141E73F180
:1005B000000405DB1C464FF00043524263EB04038A
:1005C000994208BF904230BD064C074D06E0E068F6
:1005D00040F0010394E8070098471034AC42F6D38A
:1005E000FFF788FD204C0008404C0008202A04DB5F
:1005F000203A00FA02F1002070479140C2F1200336
:1006000020FA03F3194390407047202A04DB203A74
:1006100021FA02F00021704721FA02F3D040C2F122
:1006200020029140084319467047202A06DBCB1769
:10063000203A41FA02F043EAE07306E041FA02F39D
:10064000D040C2F12002914008431946704710B5CE
:10065000141E73F1000408DA401C41F100019218E5
:100660005B411A4301D120F0010010BD2DE9F04D8E
:1006700092469B4611B1B1FA81F202E0B0FA80F2E3
:1006800020329046FFF7B2FF04460F4640EA0A00C8
:1006900041EA0B0153465A46084313D0114653EA28
:1006A000010019D0C8F140025046FFF7AEFF0546E1
:1006B0000E46504659464246FFF798FF084305D07C
:1006C000012004E020463946BDE8F08D00200543B6
:1006D00046EAE0762C4337430A986305E40AA0EB28
:1006E00008000022FD0A44EA47540A3002D50020DF
:1006F0000146E9E7010510196941DDE908450019DE
:100700006941BDE8F04DA2E72DE9F0410246002520
:100710000026002000230024002791F803C00CF0DD
:100720000F0591F803C00CF0100CBCF1000F03D0C2
:1007300091F802C04CEA050591F800C0BCF1000F29
:1007400031D0146800202BE04FF0010C0CFA00F3BC
:10075000B1F800C00CEA03069E4220D183004FF09E
:100760000F0C0CFA03F7BC4305FA03FC4CEA040433
:1007700091F803C0BCF1280F06D14FF0010C0CFA20
:1007800000FCC2F814C00AE091F803C0BCF1480FA5
:1007900005D14FF0010C0CFA00FCC2F810C0401C4F
:1007A0000828D1D31460B1F800C0BCF1FF0F34DDCC
:1007B000546800202EE000F1080C4FF0010808FA00
:1007C0000CF3B1F800C00CEA03069E4221D183006D
:1007D0004FF00F0C0CFA03F7BC4305FA03FC4CEA8C
:1007E000040491F803C0BCF1280F05D100F1080CF6
:1007F00008FA0CF8C2F8148091F803C0BCF1480F55
:1008000007D100F1080C4FF0010808FA0CF8C2F803
:100810001080401C0828CED35460BDE8F081024609
:10082000002093680B400BB1012000E000207047CE
:10083000416170470161704710B54FF48051144811
:10084000FFF7F6FF012001F0D3FA4FF400511048F2
:10085000FFF7F0FF012001F0CBFA4FF480510C4874
:10086000FFF7E8FF012001F0C3FA4FF400510848F8
:10087000FFF7D5FF08B1012400E000244FF48051B8
:100880000348FFF7D5FF012001F0B2FA204610BD62
:10089000000C014070B5002100230F22C47804B37E
:1008A000154C246804F4E064C4F5E064210AC1F145
:1008B0000403CA40447804FA03F1847814402143C5
:1008C00009010E4C0678A155047804F01F05012497
:1008D000AC4005786D11AD0005F1E025C5F800418B
:1008E00009E0047804F01F050124AC40044D0678AB
:1008F000761145F8264070BD0CED00E000E400E004
:1009000080E100E002490143024A116070470000A3
:100910000000FA050CED00E070B50646002415E075
:1009200004F1B001C8B200F0C8F8002000F0C5F82A
:10093000102000F0C2F8002504E0304600F0CDF8A9
:10094000681CC5B2802DF8DB601CC4B2082CE7DB44
:1009500070BD000008B50121082000F07FF94FF4B8
:100960004050ADF8000014208DF8030003208DF8EE
:10097000020069460648FFF7C7FE4FF4805104485D
:10098000FFF758FF4FF400510148FFF753FF08BD30
:10099000000C014010B54FF480510E48FFF74AFF9C
:1009A0004FF400510B48FFF745FF012001F020FAFA
:1009B0004FF400510748FFF73BFF012001F018FA00
:1009C0004FF480510348FFF733FF012001F010FA84
:1009D00010BD0000000C014010B54FF400510B4851
:1009E000FFF726FF012001F003FA4FF4805107487A
:1009F000FFF720FF012001F0FBF94FF400510348FD
:100A0000FFF718FF012001F0F3F910BD000C0140C1
:100A100010B5FFF79FFFC82001F0DEF9AE2000F00F
:100A20004CF8002000F049F8102000F046F8402073
:100A300000F043F8B02000F040F8812000F03DF8CD
:100A4000FF2000F03AF8A12000F037F8A62000F0CF
:100A500034F8A82000F031F83F2000F02EF8C8202C
:100A600000F02BF8D32000F028F8002000F025F843
:100A7000D52000F022F8802000F01FF8D92000F0E7
:100A80001CF8F12000F019F8DA2000F016F8122016
:100A900000F013F8DB2000F010F8402000F00DF813
:100AA0008D2000F00AF8142000F007F8AF2000F0C5
:100AB00004F80020FFF730FF10BD10B50446FFF723
:100AC00069FF782000F0CAFC002000F0C7FC204637
:100AD00000F0C4FCFFF780FF10BD10B50446FFF71F
:100AE00059FF782000F0BAFC402000F0B7FC204607
:100AF00000F0B4FCFFF770FF10BD70B505460E4660
:100B0000144625E020787F2811DD782E02DBA81C12
:100B1000C5B20026082D00DB0025224631462846B6
:100B200000F040F806F11000C6B2A41C10E0802EC0
:100B300002DBA81CC5B20026082D00DB00252278A8
:100B40003146284600F008F8641C06F10800C6B2D9
:100B500020780028D6D170BD2DE9F0470646894699
:100B60001746A7F1200000F0FF08002414E0311917
:100B7000C8B2494600F080F9002509E005EB0811EC
:100B800001EBC401064A505CFFF7A7FF681CC5B221
:100B9000082DF3DB601CC4B2022CE8DBBDE8F08753
:100BA000941F00082DE9F047804689461646002428
:100BB00010E0307804EB4401164A515C884207D1BA
:100BC000707804EB440111444978884200D103E075
:100BD000601CC4B21E2CECD300BF002515E008EB4E
:100BE0000501C8B2494600F047F9002709E007EBC4
:100BF000441101EB0511084A505CFFF76EFF781CA9
:100C0000C7B2102FF3DB681CC5B2022DE7DBBDE8CD
:100C1000F087000084250008DE25000829B1064A77
:100C2000D2690243044BDA6104E0034AD269824389
:100C3000014BDA61704700000010024029B1064AFA
:100C400012690243044B1A6104E0034A12698243A9
:100C5000014B1A61704700000010024029B1064A9A
:100C600092690243044B9A6104E0034A9269824309
:100C7000014B9A61704700000010024029B1064AFA
:100C8000D2680243044BDA6004E0034AD26882432C
:100C9000014BDA60704700000010024030B50021BF
:100CA0000022002400232D4D6D6805F00C0121B1B8
:100CB000042905D0082923D105E0294D056022E04B
:100CC000274D05601FE0254D6D6805F47012234D1A
:100CD0006D6805F48034022505EB92421CB9214D64
:100CE000554305600BE01D4D6D6805F400351DB1E1
:100CF0001C4D5543056002E0194D5543056002E067
:100D0000174D056000BF00BF144D6D6805F0F00180
:100D10000909154D6B5C0568DD4045600F4D6D6838
:100D200005F4E061090A104D6B5C4568DD408560A3
:100D30000A4D6D6805F46051C90A0B4D6B5C45683E
:100D4000DD40C560054D6D6805F44041890B074DD8
:100D50006B5CC568B5FBF3F5056130BD0010024062
:100D600000127A0000093D00200000203000002021
:100D700010B504462146054800F015FB00BF802150
:100D8000024800F043FA0028F9D010BD00440040AA
:100D900010B500F001F810BD0CB5002001900090D6
:100DA0003348006840F480303149086000BF304863
:100DB000006800F4003000900198401C01900098F9
:100DC00018B90198B0F5A06FF1D12948006800F476
:100DD000003010B10120009001E000200090009848
:100DE000012843D12348006840F0100021490860E1
:100DF0000846006820F0030008600846006840F0DC
:100E0000020008601A48406819494860084640686E
:100E100048600846406840F4806048600846406882
:100E200020F47C1048600846406840F4E8104860B0
:100E30000846006840F08070086000BF0C480068F9
:100E400000F000700028F9D00948406820F0030045
:100E5000074948600846406840F00200486000BF0B
:100E60000348406800F00C000828F9D10CBD0000D0
:100E7000001002400020024070B505460C4605F106
:100E8000B001C8B2FFF719FE04F00F00FFF715FE1E
:100E9000102101EB1410FFF710FE70BD10B51348C0
:100EA000006840F001001149086008464068104998
:100EB00008400E494860084600680E4908400B4942
:100EC00008600846006820F48020086008464068F2
:100ED00020F4FE0048604FF41F008860FFF758FFC1
:100EE0004FF000600449086010BD0000001002408F
:100EF0000000FFF8FFFFF6FE08ED00E010B501214D
:100F0000174800F040F848B30121154800F02CF8CC
:100F100014480088401C13490880084600880128AE
:100F20001CD100200880012000F056FF0120FFF7AF
:100F30001FFF0320FFF71CFF0020FFF719FF03200E
:100F4000FFF716FF0020FFF713FF0420FFF710FF45
:100F5000B420FFF70DFF0920FFF70AFF10BD0000C6
:100F60000004004098000020CA430282704721B16B
:100F7000028842F00102028004E002884FF6FE730C
:100F80001A400280704730B502460020002300243A
:100F9000158A05EA0103958905EA010413B10CB12C
:100FA000012000E0002030BD1AB183890B4383810A
:100FB00002E083898B43838170470000002202880E
:100FC0001D4B98420ED01D4B98420BD0B0F1804F74
:100FD00008D01B4B984205D01A4B984202D01A4BAE
:100FE000984204D14FF68F731A404B881A43174B1F
:100FF000984207D0164B984204D04FF6FF431A4050
:10100000CB881A4302808B8883850B8803850A4B23
:1010100098420BD0094B984208D00E4B984205D00D
:101020000D4B984202D00D4B984201D10B7A0386AA
:101030000123838270470000002C014000340140EE
:101040000004004000080040000C00400010004078
:1010500000140040004001400044014000480140AD
:101060001FB501210220FFF7D9FD00200190029059
:101070000390ADF806004FF47A70ADF8080041F621
:101080001F40ADF8040001A90D48FFF797FF0122AA
:1010900011460B48FFF788FF1D208DF80000012046
:1010A0008DF8030000208DF8010002208DF8020069
:1010B0006846FFF7EFFB01210148FFF758FF1FBD0E
:1010C0000004004010B540F22551164800F0ABF87E
:1010D00038B3144800F062F91349087008460078E4
:1010E000012801D11149086010480068012813D176
:1010F0000D4800780E490F4A126888540D48006860
:10110000401C0C490860084600680C2804D10020E7
:10111000064908600749086040F22551014800F07F
:101120000BF810BD00440040140000201C000020FB
:10113000840000201800002010B50022002340F693
:101140006A14A14200D100BF0A1201249440A3B244
:10115000DC43048010BD21B1828942F400528281B7
:1011600004E082894DF6FF731A40828170470000C7
:1011700010B504462048844209D101218803FFF7B5
:101180007DFD00214FF48040FFF778FD32E01B48E1
:10119000844209D101214804FFF750FD00214FF49A
:1011A0000030FFF74BFD25E01548844209D10121AD
:1011B0008804FFF743FD00214FF48020FFF73EFD38
:1011C00018E01048844209D10121C804FFF736FD18
:1011D00000214FF40020FFF731FD0BE00A48844264
:1011E00008D101210805FFF729FD00214FF48010E7
:1011F000FFF724FD10BD000000380140004400400E
:1012000000480040004C00400050004002460020D2
:10121000B1F5007F00D100BF13880B400BB1012056
:1012200000E00020704770B502460024002300252E
:10123000002040F66A16B14200D100BFC1F342154A
:1012400001F01F03012606FA03F3012D02D196894E
:10125000334006E0022D02D1168A334001E0968A1F
:1012600033400C12012606FA04F41688344013B1F8
:101270000CB1012000E0002070BDF0B50346002451
:1012800000260025002040F66A17B94200D100BFB1
:101290001846C1F3421401F01F06012707FA06F5AC
:1012A000012C01D10C3004E0022C01D1103000E0FF
:1012B00014301AB107682F43076002E00768AF4394
:1012C0000760F0BD2DE9F04786B005460E460024C4
:1012D000A24600BFA1460027B08900B100BF2F463B
:1012E0002C8A4CF6FF700440F08804432C82AC89B1
:1012F0004EF6F3100440B0883189084371890843E1
:101300000443AC81AC8A4FF6FF400440B0890443EB
:10131000AC8201A8FFF7C2FC1F48874202D1DDF86A
:1013200010A001E0DDF80CA0A88900F4004040B155
:101330000AEBCA0000EB0A1031684900B0FBF1F873
:1013400007E00AEBCA0000EB0A1031688900B0FB25
:10135000F1F86420B8FBF0F004012009642101FBDE
:101360001089A88900F4004040B1322000EBC90088
:10137000B0FBF1F000F00700044308E0322000EB7E
:1013800009106421B0FBF1F000F00F0004432C8140
:1013900006B0BDE8F08700000038014001468888AB
:1013A000C0F308007047C1F3080282807047000054
:1013B00010B586B0044601210420FFF74FFC01213F
:1013C0004804FFF72BFC2348FFF7D2FE0420ADF8BA
:1013D000100003208DF8120018208DF8130004A9C6
:1013E0001D48FFF791F90820ADF8100004208DF892
:1013F000130004A91848FFF787F900940020ADF8FE
:101400000400ADF80600ADF80800ADF80C000C20A3
:10141000ADF80A0069460F48FFF754FF01210D4857
:10142000FFF799FE012240F225510A48FFF725FFF8
:1014300026208DF8140002208DF8150003208DF869
:10144000160001208DF8170005A8FFF723FA06B053
:1014500010BD0000004400400008014070B5044683
:10146000002524E04FF480511948FFF7E1F90120ED
:1014700000F0BEFC04F0800028B14FF40051144885
:10148000FFF7D8F904E04FF400511148FFF7D0F905
:101490006006040E012000F0ABFC4FF480510C48B4
:1014A000FFF7C8F9012000F0A3FC681CC5B2082DA5
:1014B000D8DB4FF480510648FFF7BAF9012000F05D
:1014C00097FC00BFFFF7B8F90028FBD170BD000002
:1014D000000C01400FB4084B10B504A902AA0398F0
:1014E00000F0DEF8044602A9002000F070FC20465F
:1014F00010BC5DF814FB0000CF1D000802E008C816
:10150000121F08C1002AFAD170477047002001E07D
:1015100001C1121F002AFBD1704700002DE9FF5FB7
:1015200082B00021DDE90430020DDDF840B0034354
:1015300018D044F61050A2F2FF324243151411980D
:1015400001281FD0A5EB0B00401C5FEA000A4FF0FA
:1015500000064E4FDFF83891B046504615D5CAF117
:10156000000413E0119801244AA3012801D16FEA75
:101570000B010298119AC0E90031C0E9024206B09D
:10158000BDE8F09FCBF10000DFE704460021404AB0
:10159000491842EB0450CDE9001012E0E00707D0F3
:1015A00032463B4640464946FEF7FDFE80468946A8
:1015B00032463B4610461946FEF7F5FE06460F46F4
:1015C0006410002CEAD1DDE90401DDE90023BAF161
:1015D000000F06DAFEF7E7FE42464B46FEF7E3FE53
:1015E00005E0FEF752FF42464B46FEF74EFF04462B
:1015F0000E460022284BFEF7CFFF03D84FF0FF30F6
:10160000014607E00022254B20463146FEF724FE26
:10161000FEF7AAFF102409E0002C0ADB0A220023AF
:10162000FEF7B2FD039B30321A55641E50EA0102E8
:10163000F2D1641C039AC4F111031444119A012AD3
:1016400003D0012208430DD10AE0084304D0002052
:101650004FF0110B119072E7A3EB0B056D1E0DE01F
:101660005B4504DD4FF0000205F1010504E003DAFB
:101670004FF00002A5F10105002AECD00298119963
:10168000C0E90231C0E9004579E7000000001440DC
:101690000000F03F300000000000F0430000E03F99
:1016A0002DE9FF4F95B09B468946064600250FE27F
:1016B000252877D100242746F84A0121059400E027
:1016C000044316F8013F203B01FA03F01042F7D122
:1016D00030782A2811D06FF02F033078A0F1300233
:1016E000092A16D8059A44F0020402EB820203EBA1
:1016F00042021044761C0590EFE759F8042B05923E
:10170000002A03DA504244F40054059044F00204E5
:10171000761C30782E2816D116F8010F44F00404F8
:101720002A280DD06FF02F023078A0F13003092B5A
:1017300009D807EB870302EB4303C718761CF3E7CE
:1017400059F8047B761C30786C280FD006DC4C28C6
:1017500017D068280DD06A2814D104E0742810D05E
:101760007A280FD10DE044F400140AE044F4801408
:1017700001E044F440147278824202D104F58014EE
:10178000761C761C307866280BD013DC582877D06E
:1017900009DC002875D04528F6D04628F4D0472823
:1017A0001AD19DE118E0632835D0642879D06528E6
:1017B00012D195E1702873D008DC6728F1D0692830
:1017C0006FD06E280DD06F2806D1B5E073282CD0CD
:1017D000752875D0782874D05A46179990476D1C93
:1017E00075E1C4F30250022809D003280DD0D9F8BE
:1017F000001004280DD00D6009F1040967E1D9F843
:101800000010EA17C1E90052F6E7D9F800100D8080
:10181000F2E70D70F0E719F8041B8DF800100020B6
:101820008DF80100EA46012003E059F804AB4FF0BF
:10183000FF3061074FF0000102D40DE008F1010113
:101840008846B9420FDA8045F8DB1AF808100029FB
:10185000F4D108E008F1010188468142FADB1AF868
:1018600008100029F6D105985B46A0EB0807214631
:101870003846179A00F094FA284400EB080507E070
:101880004DE029E10DE01AF8010B5A4617999047EF
:10189000B8F10108F7D25B4621463846179A13E1A2
:1018A00042E00A220092C4F302524FF0000A022AD8
:1018B00008D059F804CB032A4FEAEC710AD00DE0A6
:1018C00029E02AE009F1070121F00702F2E802C14C
:1018D000914609E00FFA8CFC4FEAEC71042A03D11F
:1018E0004FFA8CFC4FEAEC71002907DA0A46002116
:1018F000DCF1000C61EB02012D2202E0220504D58F
:101900002B228DF80420012203E0E20701D02022DF
:10191000F7E7904659E00A2102E010220DE010217D
:101920004FF0000A00910BE010224FF0000A44F043
:1019300004040827009203E008224FF0000A0092F6
:10194000C4F30252022A05D059F804CB0021032A1D
:1019500008D009E009F1070121F00702F2E802C10D
:10196000914605E01FFA8CFC042A01D10CF0FF0C13
:101970004FF00008220728D5702806D0009B83F07E
:10198000100353EA0A0305D00EE040228DF804202C
:10199000012208E05CEA010206D030228DF8042022
:1019A0008DF8050002229046009B83F0080353EA5D
:1019B0000A030AD15CEA010201D1620705D530228F
:1019C0008DF804204FF001087F1E582804D034A061
:1019D00003900EA802900DE036A0F9E7534660464A
:1019E000009AFEF7D1FB84460398825C0298401E61
:1019F000029002705CEA0100F0D1029806A9081A70
:101A000000F1200A600702D524F4803400E00127A9
:101A1000574502DDA7EB0A0000E0002000EB0A01B9
:101A2000009005984144401A0590E00306D45B46B7
:101A30002146179A059800F0B3F90544002706E0FF
:101A400001A85A46C05D179990476D1C7F1C4745F9
:101A5000F6DBE0030CD55B462146179A059800F0AB
:101A60009FF9054404E030205A46179990476D1CB1
:101A70000099481E00900029F5DC08E002980299C0
:101A80005A460078491C0291179990476D1CBAF18B
:101A90000001AAF1010AF1DC65E10000092801005A
:101AA00030313233343536373839616263646566D4
:101AB0000000000030313233343536373839414296
:101AC000434445460000000000F058F90544761CE8
:101AD000307800287FF4ECAD19B02846BDE8F08FCF
:101AE000620700D4062709F1070222F0070CFCE880
:101AF0000223E14603F000485FEA080C02D00FF22F
:101B0000702C0DE05FEA045C02D50FF2682C07E050
:101B10005FEAC47C02D00FF2602C01E0AFF2700CDF
:101B20004FF0FF3823F00043CDF850C065280CD0AB
:101B300006DC452809D046281DD047283DD13DE088
:101B4000662818D067287ED138E00021112F01DBEC
:101B5000112000E0781CCDE9000106A90EA8FFF7CE
:101B6000DDFCDDE90F010E9A03910021009207F1DF
:101B7000010A04914DE04FF000400097CDE90110BB
:101B800006A90EA8FFF7CAFCDDE90F0203920E9B1F
:101B900011990022DDF80CA00093049211B9791C70
:101BA00000EB010AB7EB0A0004D4C0F1FF3007F1E3
:101BB000010A0490AAEB0700019044E0012F00DA2B
:101BC00001270021112F01DD112000E03846CDE969
:101BD000000106A90EA8FFF7A1FCDDE90F010E9A8E
:101BE0000391002104910092BA4621070CD4039975
:101BF000514500DA8A46BAF1010F05DD009AAAF1D3
:101C00000101515C302908D0B84202DA10F1040F0A
:101C100006DA0121CDE9011015E0AAF10101E9E799
:101C2000002805DC049901440491AAEB000102E0BC
:101C3000411C514500DD8A460499401A401C019020
:101C40004FF000400290200704D40198504501DB7A
:101C5000CDF8048000208DF84F0002980DF14F0759
:101C6000B0F1004F25D02B200E9002984FF00208C3
:101C700000280CDA404202902D200E9007E00A2145
:101C80000298FEF76BFA3031029007F8011DB8F1A7
:101C90000001A8F10108F2DC02980028EFD1791EBA
:101CA0000E980870307800F0200040F0450007F8EA
:101CB000020D12A8C01B00F107081498007800B1AB
:101CC000012000EB0A01019801EBE0710598414405
:101CD000401A401E0590E00306D45B462146179A41
:101CE000059800F05DF805441498007818B15A463C
:101CF000179990476D1CE00324D55B462146179A3F
:101D0000059800F04DF805441CE00498002807DB16
:101D1000DDE90301884203DD0098405C179901E08A
:101D2000179930205A469047049805F10105401C48
:101D300004900198401E019004D12E205A46179914
:101D400090476D1CBAF10001AAF1010ADDDC05E043
:101D500017F8010B5A46179990476D1CB8F100010E
:101D6000A8F10108F4DC5B462146179A0598ABE61A
:101D70002D0000002B000000200000002DE9F041A4
:101D8000044600251E461746880404D405E039465B
:101D90002020B0476D1C641EF9D52846BDE8F081AF
:101DA0002DE9F041044600251E469046C80301D5A2
:101DB000302700E02027880404D505E04146384656
:101DC000B0476D1C641EF9D52846BDE8F0810A684D
:101DD000531C0B601070704700B5034603E04FF4CE
:101DE0007A7000F005F8181EA3F10103F7D100BDC9
:101DF00047E000BF00BF00BF00BF00BF00BF00BF83
:101E000000BF00BF00BF00BF00BF00BF00BF00BFDA
:101E100000BF00BF00BF00BF00BF00BF00BF00BFCA
:101E200000BF00BF00BF00BF00BF00BF00BF00BFBA
:101E300000BF00BF00BF00BF00BF00BF00BF00BFAA
:101E400000BF00BF00BF00BF00BF00BF00BF00BF9A
:101E500000BF00BF00BF00BF00BF00BF00BF00BF8A
:101E600000BF00BF00BF00BF00BF00BF00BF00BF7A
:101E700000BF00BF00BF00BF00BF00BF00BF00BF6A
:101E800000BF011EA0F10100B3D170474FF4A06064
:101E9000FEF738FD4FF49650FFF78AFAFEF7B8FDCB
:101EA000FFF7DEF852E02A480179C07801EB001014
:101EB0000A2190FBF1F42046FEF734F92549086029
:101EC00023488179407901EB0010234908602048BC
:101ED000017AC07901EB0010204908601C48817A22
:101EE000407A01EB00101E4908601A480068FEF7AE
:101EF00022F9044622460B461AA11C48FFF7EAFACB
:101F000015481BA102681C48FFF7E4FA13481BA1FF
:101F100002681C48FFF7DEFA11481BA102681C4842
:101F2000FFF7D8FA114A00210846FEF7E6FD124AEB
:101F300000210220FEF7E1FD124A00210420FEF7F5
:101F4000DCFD134A00210620FEF7D7FDABE70000B9
:101F50008400002000000020080000200C00002069
:101F60001000002050483A252E3166003400002031
:101F70004E3A25640000000048000020503A2564D5
:101F8000000000005C0000204B3A256400000000C7
:101F900070000020000000000000000000000000B1
:101FA00000000000000000F8000000000000003306
:101FB0003000000000100C06100C060000000000AD
:101FC0000000000040C07840C0784000043F040496
:101FD0003F040400007088FC08300000001820FF57
:101FE000211E0000F008F000E018000000211C0392
:101FF0001E211E0000F00888700000001E2123240E
:102000001927211000020204000000000000000057
:1020100000000000000000E01804020000000007BB
:102020001820400000020418E000000000402018C2
:1020300007000000404080F0804040000202010F95
:1020400001020200000000F0000000000101011F79
:1020500001010100000000000000000080B07000DD
:10206000000000000000000000000000000101016D
:1020700001010101000000000000000000303000FC
:1020800000000000000000008060180400601806D6
:102090000100000000E010080810E000000F102010
:1020A00020100F00001010F8000000000020203F5A
:1020B00020200000007008080888700000302824E4
:1020C0002221300000300888884830000018202085
:1020D00020110E000000C02010F8000000070424AA
:1020E000243F240000F808888808080000192120EF
:1020F00020110E0000E0108888180000000F112049
:1021000020110E0000380808C83808000000003F01
:10211000000000000070880808887000001C222160
:1021200021221C0000E010080810E000000031220D
:1021300022110F00000000C0C000000000000030AD
:1021400030000000000000800000000000008060FF
:102150000000000000008040201008000001020480
:102160000810200040404040404040000404040467
:102170000404040000081020408000000020100823
:1021800004020100007048080808F0000000003058
:1021900036010000C030C828E810E00007182724E6
:1021A00023140B000000C038E0000000203C230294
:1021B0000227382008F8888888700000203F2020F7
:1021C00020110E00C0300808080838000718202029
:1021D0002010080008F808080810E000203F202020
:1021E00020100F0008F88888E8081000203F202001
:1021F0002320180008F88888E8081000203F2000F5
:1022000003000000C030080808380000071820202C
:10221000221E020008F808000008F808203F2101EB
:1022200001213F20000808F8080800000020203F96
:102230002020000000000808F8080800C080808006
:102240007F00000008F888C028180800203F2001FF
:102250002638200008F8080000000000203F202059
:102260002020300008F8F800F8F80800203F003F70
:10227000003F200008F830C00008F808203F200088
:1022800007183F00E01008080810E0000F10202099
:1022900020100F0008F808080808F000203F21016E
:1022A00001010000E01008080810E0000F182424C5
:1022B00038504F0008F8888888887000203F200038
:1022C000030C3020007088080808380000382021EE
:1022D00021221C00180808F8080818000000203FF8
:1022E0002000000008F808000008F808001F20205F
:1022F00020201F000878880000C838080000073830
:102300000E010000F80800F80008F800033C070080
:10231000073C0300081868808068180820302C03E8
:10232000032C30200838C800C83808000000203FBF
:102330002000000010080808C838080020382621AE
:1023400020201800000000FE020202000000007FB2
:1023500040404000000C30C00000000000000001C0
:102360000638C00000020202FE00000000404040AB
:102370007F000000000004020202040000000000D0
:10238000000000000000000000000000808080804D
:102390008080808010160E00000000000000000009
:1023A00000000000000080808080000000192422CE
:1023B00022223F2008F8008080000000003F11200A
:1023C00020110E000000008080800000000E11200F
:1023D00020201100000000808088F800000E1120ED
:1023E00020103F200000808080800000001F2222FB
:1023F00022221300008080F0888888180020203F67
:10240000202000000000808080808000006B949479
:102410009493600008F8008080800000203F210035
:1024200000203F2000809898000000000020203FFE
:1024300020200000000000809898000000C08080EC
:10244000807F000008F8000080808000203F240288
:102450002D302000000808F8000000000020203F78
:10246000202000008080808080808000203F20002D
:102470003F20003F8080008080800000203F2100BE
:1024800000203F200000808080800000001F20206E
:1024900020201F00808000808000000080FFA1209D
:1024A00020110E000000008080808000000E1120AE
:1024B00020A0FF80808080008080800020203F213D
:1024C00020000100000080808080800000332424F0
:1024D00024241900008080E0808000000000001F9C
:1024E000202000008080000000808000001F20204D
:1024F00020103F20808080000080808000010E300E
:102500000806010080800080008080800F300C036E
:102510000C300F0000808000808080000020312E71
:102520000E312000808080000080808080818E704D
:102530001806010000808080808080000021302CFF
:102540002221300000000000807C02020000000018
:10255000003F404000000000FF00000000000000BD
:10256000FF0000000002027C800000000040403FAD
:102570000000000000060101020204040000000047
:1025800000000000BBB600D3AD00B9E200C1D90025
:10259000D4C600BCD200BED300CEC200B6C800CAAA
:1025A000AA00A1E600B6E000CFC200D3EA00C1D283
:1025B00000C8D500B5B500C7BF00CDC100C8C00078
:1025C000D5D500BDF800C8EB00B2B900C4A300CA5D
:1025D000BD00CDA800B7E700B9E000B8C8000424EA
:1025E0004484649C40300FC8080828180000100874
:1025F0000601824C20180601061820408000404049
:1026000042CC0000FC040200FC0404FC000000407A
:10261000201F20404F4442407F42444340004040FE
:10262000424458C0407F40C05048464040008080EF
:10263000402018070000003F40404040780000F86C
:102640000000FF4020180F18680808080800001F45
:102650000000FF00007F21213F21217F000040403A
:1026600042424242C2424242424242404000002074
:1026700070282423202020242830E0000000102C83
:102680002424A4A465A624242424A4340C004049B2
:102690004929241452897F040A11102020000000C7
:1026A000FE9292929292F29292929E80800040309C
:1026B0000F00FC44444447444444FC0000001060C4
:1026C000028C0000FE9292929292FE00000004049E
:1026D0007E01407E42427E427E42427E40000000B9
:1026E000FC242424FC252624FC242424040040303B
:1026F0008F80844C55252525554C808080001060A6
:10270000028C00FE929292929292FE0000000404CB
:102710007E014448507F40407F50484440000609B5
:1027200009E6F80C040202020202041E0000000086
:1027300000071F30204040404040201000000000B3
:10274000101098A44744A4540C0400000000008119
:10275000898944444A31211109050300000002021D
:1027600002020202FE020242820202020200000093
:1027700000000000FF00000000010600000002E26F
:102780002222222222FE2222222222E2020000FF14
:1027900000000912007F00091240807F0000004203
:1027A00022529E1292720200FC0000FF0000884834
:1027B0003404021160001060000214E30000000005
:1027C00000FE82828282828282FE0000000000007F
:1027D00000FF40404040404040FF0000000010101B
:1027E000D0FF901040425C407F4050CE0000040378
:1027F00000FF000140444444444444FF000002E21E
:1028000022223E00809E9292F292929E800000438D
:1028100082423E40474444447F444454E700000021
:102820004040404040FF40404040400000004040A9
:1028300040404040407F40404040404040001010F9
:10284000FF100082BAEABA83BAEABA820000081816
:102850000F04484A2AFF8A4A1A2F5A8A880000FE23
:10286000424242FE0042A29E82A2C2BE0000806F8F
:10287000080828CF00002FC8080828CF00004040D3
:1028800042CC00808888FF8888FF888880000040CC
:10289000201F2040504C4340405F4040400000001B
:1028A00000000001E21CE000000000000000804089
:1028B00020100C03000000030C3040808000000852
:1028C0000889CA28980000FF20408000000000020C
:1028D0000100FF01060000FF0000000300001010CF
:1028E000D0FF9014E4AFA4A4A4AFE4040000040358
:1028F00000FF00894B2A1A0E1A2A4B8880001010FC
:1029000090909090901010FF101011161000002061
:1029100060203F10101000030C102040F8004042CF
:10292000CC0000E2222A2AF22A2622E0000080407F
:102930003F4080FF898989BF89A9C9BF8000000005
:10294000FE021222C202C23202FE000000008060BB
:102950001F0020100C030C30000F3040F80020C284
:102960000C80023A2AEF3A42BA2F2A3A02000404B3
:102970007E010804FF5555557F555555410010609F
:10298000028C00FE9292FE00F282FE82820004041B
:102990007E01003F100A9C6018073E407000000056
:1029A0000000000000000000000080C0C0E0F0F067
:1029B000F8F8FCFC7E7E3E3FBF9F9F9F9F9F9F9F9E
:1029C0009F9F9FBF3F3E7E7EFCFCF8F8F0F0E0C08A
:1029D000C0800000000000000000000000000000B7
:1029E0000000000000C0F0F8FEFF7F1F8FC7E7F374
:1029F000F9FDFCFEFEFFFFFFFFFFFFFFFFFFFF7F74
:102A00001F1F0FEF9F1F3FFEFEFCFDF9F3E7C78F6F
:102A10001F7FFFFEF8F0C000000000000000000073
:102A20000000C0FCFFFF7F0F03F0FCFEFFFFFFFF75
:102A3000FFFFFFFFFFFFFFFFFFFFFFFFFFFFFF8025
:102A400000F8FC1F030080E0FFFFFFFFFFFFFFFF18
:102A5000FEFCF0830F7FFFFFFCC0000000000000C1
:102A60000000FFFFFFFF0000FFFFFFFFFFFFFF83EE
:102A700001091818183838707071F1B3F7FFFFEFBB
:102A80001E3FFFFCFCFEFFFFFFFFFFFFFFFFFFFFFE
:102A9000FFFFFFFF0000FFFFFFFF0000000000003E
:102AA0000000031FFFFFFCC0073FFFFFFFFFFFFF0A
:102AB000FFFFFEFEFEFEFEFEFFFFFFFF8FC7E3F1FE
:102AC000F8FEFFFFFFFFFFFFFFFFFFFFFFFFFFFF1E
:102AD000FFFF3F07C0FCFFFF1F03000000000000D6
:102AE000000000000001070F3F7CF8E3C7CFFFFFA5
:102AF000FF7F3F3F1F1F1F1F0F0F0F0F0F0F0F0FE6
:102B00000F0F0F0F1F1F1F1F3F3F7FFFFFFFCFC77D
:102B1000E3F87C3F0F070100000000000000000008
:102B20000000000000000000000000010303070F88
:102B30000E1E1E3E3E3E7EFEFEFEFEFEFEFEFEFE25
:102B4000FEFEFEFEFE7E3E3E3E1E1E0E0F070303F1
:102B50000100000000000000000000000000000074
:102B60000000000000000000000000000000000065
:102B700000000000000000000001030F3FFFFF3FC6
:102B80000F03010000000000000000000000000032
:102B90000000000000000000000000000000000035
:102BA0000000000000000000000000000000000025
:102BB0000000000000000000000000000000000015
:102BC0000000000000000000000000008080808005
:102BD000C0C0C0C0000000000000000000000000F5
:102BE0000000000000C0C0C0C0C0C0C0C0C0C0C0A5
:102BF000C0C0C080808000000000000080C0E0E015
:102C0000F0F8F8FCFC7C7E3E3F3F1F1F1F0F0F0FAC
:102C10001FFFFFFFFFF88000000000000000000021
:102C200000000000FFFFFFFFFF0707070707070778
:102C30000F0F0F0F1F1F3FFFFEFEFEFFFF7F1F0F37
:102C40000703010100000000000000000000000078
:102C500000011FFFFFFFFFF8000000000000000060
:102C6000000000003FFFFFFFFFF8800000000000B1
:102C7000000000000000FEFFFFFFFF0F010000004A
:102C8000000080E0F0F8FCFCFC7C18000000000074
:102C90000080F0FFFFFFFF3F000000000000000089
:102CA000000000000001071F3FFFFFFEF8F0E0C03A
:102CB000C080800000007FFFFFFFFFE00000C0F049
:102CC000FCFFFFFF3F0F07010000008080C0E0F81D
:102CD000FCFFFF7F3F0F030000000000000000002A
:102CE0000000000000000000000001010307070FC2
:102CF0000F1F1F1F3F3F3F3F3FFFFFFFFEFFFFFF35
:102D0000FFFFF3F8F8F8FCFC7E7E3F3F1F1F0F0724
:102D100003010000000000000000000000000000AF
:102D200000000000000000000000000000000000A3
:102D30000000000000000000F0FFFFFFFF3F0F0356
:102D4000030301010100000000000000000000007A
:102D50000000000000000000000000000000000073
:102D60000000000000000000000000000000000063
:102D70000000000000000000010303030100000048
:102D80000000000000000000000000000000000043
:102D90000000000000000000000000000000000033
:102DA0000080808080808080808000000080C0C0A3
:102DB000E0E07070703838F8F8E0000000000000C3
:102DC00000FFFFFF030303030307F7FFFF0F0301E8
:102DD00081C0E0E000000000FFFFFF0000000000F5
:102DE0000000030F1F1C383870707FFFFFF0FCFEDF
:102DF000DFE7E1F070783C1F0F07010000000000E2
:102E000000000000000000000000001E1F0F010174
:102E100001000000000000000000000000000000B1
:102E200000000000000000000000000000000000A2
:102E300000000000C0C0C0C0000000000000000092
:102E40000000000000000000000000000000000082
:102E50000000000000000000000000000000000072
:102E6000000000003030FCFCFCFC30300000C0C032
:102E7000F0F0F0F0FFFFFFFFF0F0C0C0C0C00000B6
:102E8000F0F0F0F0F0F000000000000000000000A2
:102E90000000000000000000000000000000000032
:102EA0000000C0C0C0C0C0C0C0C0FCFCFFFF3F3FAE
:102EB0000303030303030303C3C3CFCFFFFFFFFFDA
:102EC000F3F3F3F3F0F0F0F0F0F0C0C00000000016
:102ED00000000000000000000000000000000000F2
:102EE00000000303030303030303FFFFFFFFF0F0EE
:102EF0000000C0C0FCFCFFFF3F3F030303030000D2
:102F0000000000000000030303030F0F3F3FFCFC21
:102F1000F0F0C0C0C0C000000000000000000000D1
:102F2000000000000000F0F0FCFCFFFF3F3F0F0F2F
:102F30000F0F0F0F0F0F0303000000000000000031
:102F40000000000000000000000000000000000081
:102F500003030F0F3F3FFFFFF0F0000000000000F1
:102F600000000000FFFFFFFFFFFF00000000000067
:102F70000000000000000000000000000000000051
:102F80000000000000000000000000000000000041
:102F900000000000C0C0FFFFFFFF000000000000B5
:102FA0000000000000000F0F3F3FFCFCF0F0F0F0CD
:102FB000C0C0C0C0C0C0C0C0C0C0C0C0C0C0C0C011
:102FC000C0C0C0C0C0C0C0C0C0C0C0C0F0F0F0F041
:102FD000FCFCFCFC3F3F0F0F000000000000000065
:102FE00000000000000000000000000000000303DB
:102FF00003030303030303030303030303030303A1
:103000000303030303030303030303030303000096
:1030100000000000000000000000000000000000B0
:10302000000000000080C0C0C0C0C0C0C0C0C0C0A0
:10303000C0C0C0C0C08080000000C0F0FCFE3E0FD9
:103040000F0F07070F0F1EFCF8F000000000000034
:103050000000000000000000000000000000000070
:103060000000000000070F0F0F0F8FCFCFCFCFCF83
:10307000CFCFCFCFCF8F07000000FFFFFFFF0000B3
:10308000C0C0C0C080000000FFFF000000000000C2
:103090000000000000000000000000000000000030
:1030A00000000000000000000003070F0F0F0F8F4B
:1030B0008FCFCFCFCF8783000000FFFFFFFF00003F
:1030C000FFFFFFFFFF000000FFFF00000000000007
:1030D00000000000000000000000000000000000F0
:1030E00000000000000000000000000000000007D9
:1030F000070F0F0F0F0703000000FFFFFFFF000087
:10310000FFFFFFFFFF000000FFFF000000000000C6
:1031100000000000000000000000000000000000AF
:10312000000000000000000000000000000000009F
:10313000000000000080C0E0F0F87F3F3F1F00006B
:10314000FFFFFFFFFF0000003F3F7878F0E0C08006
:10315000000000000000000000000000000000006F
:10316000000000000000000000000000000000005F
:10317000000080F8FFFF1F07010000C0F0F8FCFE10
:10318000FFFFFFFFFFFEFCF8F0C0000001030FFF90
:10319000FEF8000000000000000000000000000039
:1031A000000000000000000000000000000000001F
:1031B0000000073FFFFFF0C0000000030F1F3F7F2C
:1031C0007F7F7F7F7F7F3F1F0F0100000080E0FF38
:1031D000FF1F0000000000000000000000000000D1
:1031E00000000000000000000000000000000000DF
:1031F000000000000103070F1F3E3C7878F0F0F05C
:10320000E0E0E0E0E0F0F0F078783C3E1F0F0701EE
:1032100000000000000000000000000000000000AE
:103220000000F0F0F0F0E080C0C0E0E0FFFFFFFF42
:10323000E0E0C0C080E0F0F0F0F000000000C0C0AE
:10324000C0C0C0F1FDFF8FF7FBFDFEFEFEFFFFFEDD
:10325000FEFEFDFBF78FFFFDF1C0C0C0C0C0030341
:103260000303038FBFFFF1EFDFBF7F7F7FFFFF7F90
:103270007F7FBFDFEFF1FFBF8F0303030303000076
:1032800000000F0F0F0F070103070707FFFFFFFFE6
:103290000707070301070F0F0F0F000000000000D2
:1032A0000060F0F0F0C0800000009EBFBFBF800053
:1032B000000080E0F0F0F06000000000000080807E
:1032C00080808003E3FBFDFE3F1F0F0F0F8F9FDF0A
:1032D000EFEEECE3E3E3E1E0C0C0800000000707AD
:1032E0000707C7E0E7F7F7F7E0E0F8FEFF7F0F0713
:1032F0000703030101010303070FFFFFFEF00000B6
:10330000003F7FFFFFF1F1F1F1F3F7F7F7F0F0F095
:10331000F0F0F0F0F0F0F0F0F0F8FFFF7F1F0000A9
:10332000000000000000000080E0F0F8FC7E3E1F7E
:103330001F0F0F0F0F1F1F3F7EFCFCF0E080F0FC03
:10334000FEFF1F1F0F0F1F3F3F3F3F0F01000000F9
:1033500000000000000000000081FFFFFFFF071FCA
:103360003F3F3E3C3C3C3C3C3C3C3C3C3C3C3C3C95
:103370003C3C3C3C3C3C3C3C3E3F1F0F07010000BA
:1033800000001C3F3F3F3E00003F3F3F3F00003FEB
:103390003F3F3F3F001E3F3F3F0C0000000000004A
:1033A0000040E0E0400080C0C0F8F8C0808000C06D
:1033B000C0C000000000000000000000000000008D
:1033C00018181818FEFFC70181E1F1791B1F0F0DB6
:1033D0000D0C1C1C3870E0C0808000000000000054
:1033E00000F0FCFE0F0703030303010000000000D0
:1033F00000000000000000010387FFFC0000000047
:10340000000003070E0C1C181818181818181818A4
:1034100018181818181C0C0E0E07030000000000E6
:10342000000000000000000000000000000000009C
:10343000000000000000000000000080C0F0F0C0AC
:1034400080000000000000000000000000000000FC
:10345000000000000000000000000000000000006C
:1034600000003C7EFEFEFEFEFEFEFEFEFEFE7E3CFC
:1034700000000000000080C0F0F8FEFFFFFFFFFF2B
:10348000FFFEFCF0E0800000000000387CFEFEFE45
:10349000FEFEFEFEFEFEFEFE7C3800000000000088
:1034A00000008080C0C0C0C080000000000000009C
:1034B0000000C0F0F8FEFFFFFF7F3F0F0301010394
:1034C0000F3F7FFFFFFFFEFCF0C000000000000088
:1034D000000080C0C0C0C0C080000000000000002C
:1034E00000000F1F1F1F1F1F0F0700000000C0F06C
:1034F000FCFFFFFFFF7F1F0701000000000000002E
:1035000000000001071F7FFFFFFFFFFCF0C000006D
:1035100000000F1F1F1F1F1F0F07000000000000EB
:103520000000E0F0F0F0F0F0E0000000F8FFFFFF36
:10353000FFFF3F0701000000000000000000000046
:103540000000808080800001073FFFFFFFFFFFF841
:10355000800000F0F0F0F0F0F0E00000000000006B
:1035600000000103030303030100001FFFFFFFFF2F
:10357000FFFFE0800000000000E0F0F8F8F8F8FC41
:10358000FCFFFFFF7F3F1F0080E0FFFFFFFFFFFF0B
:103590001F000001030303030100000000000000FE
:1035A00000000000000000000000000000030F1FEA
:1035B0003F7FFFFFFEFCF8F8F0E0E1E3E3E3E1E149
:1035C000E1E1E0F0F0F8FCFEFFFF7F3F1F0F03009A
:1035D00000000000000000000000000000000000EB
:1035E00000000000000000000000000000000000DB
:1035F000000000010103070707070F0F0F0F0F0F50
:103600000F0F0F0707070303010000000000000071
:1036100000000000000000000000000000000000AA
:10362000E0F0F0F0F0F0E000000080E0F8FCFCF8E2
:10363000E080000040E0F0F0F0F0F0E0000000007A
:10364000387878380000C0F0FCFE7F1F07010107C2
:103650001F7FFFFCF0C000003878783800000000C1
:103660001C1C1C1C30FFFFFFC7010000E0E0E0F065
:10367000F8F831C7FFFFFF301C1C1C1C00000000C5
:1036800000000000000103070F1F3E3C3D3D3D3D93
:103690003C3E1F0F07030100000000000000000077
:1036A00000000000000080C0800080C0800080C05A
:1036B000800000000000000000000000000000008A
:1036C0000000000000000107DFFEF907CFFEF9232C
:1036D0008FFEF82000000000000000000000000045
:1036E0000000000000808C9FBFF3E0DEBFFBE0CE57
:1036F000BFFFF1C0808080000000000000000000DB
:103700000000000000030303030303030303030398
:103710000303030303030300000000000000000094
:1037200000000000000000000080C0E0381C1C38D1
:10373000E0C0800000000000000000000000000069
:103740000000000000C0F0380E070100000000007B
:103750000001030E3870C0000000000000000000EF
:10376000000000007EE778F080000000000000000C
:10377000000000000000E77E0000000000000000E4
:1037800000000000000103060D1B1E36343C3C30D7
:103790003018180C060301000000000000000000B3
:1037A000000000C0C0E0C08000000000387C7C3811
:1037B0000000000080C0E0C0C00000000000000069
:1037C00080C0C0C0810303E3F0F8FC1E1E1E1E1E55
:1037D0003EFCF8F0E30303010000000000000001DC
:1037E0000303030383C0C0C71F3F3F78787878780E
:1037F000783F3F1F0700C0E0FEFF7F1F0000000072
:103800000000000307070301000000000000383C2F
:103810003C3C3C1E1F0F070301000000000000009D
:103820000000000000000000000000000000000098
:103830000000000000000000000000E0F0F0F0F0E8
:10384000E000000000000000000000000000000098
:103850000000000000000000000000000000000068
:10386000000000000000000000F0F8F8F8F8F0E0B8
:10387000C0800000000000000000001F3F3F3F3FED
:103880001F00000000000000000080C0E0F0F8F819
:10389000F8F8F00000000000000000000000000048
:1038A000000000000000000000000103070F0F0FE0
:1038B0000F070080C0E0F0F0F8F8FCFCFCFCFCFC1A
:1038C000FCF8F8F8F0F0E0C08000070F0F0F0F0FC2
:1038D00007030000000000000000000000000000DE
:1038E0000080C0E0E0E0E0E0E0E0C0800000000038
:1038F000F0FCFFFFFFFFFF1F0703030101010101B0
:10390000010303071FFFFFFFFFFFFCE000000000B3
:1039100000000000000000000000000000000000A7
:103920000003070F0F0F0F0F0F0F0703000000001A
:10393000073FFFFFFFFFFFF8E0C0C080808080806E
:1039400080C0E0E0F8FFFFFFFF7F3F0300000000C2
:10395000000080F8FEFFFFFFFF3E000000000000B7
:103960000000000000000000000080C0E0F0F0F067
:10397000F0E0000103070F0F1F1F1F3F3F3F3F3FB6
:103980001F1F1F1F0F070301000000000080C0E081
:10399000F8FEFFFFFFFF3F0F0300000000000000E4
:1039A0000000000000000000000F1F3F3F1F1F0F1E
:1039B000070300000000000000000000000080C0BD
:1039C000E0E0E0E0E0F0F0F0F8FCFCFEFFFF7F3F1D
:1039D0001F0F0703010000000000000000000000AE
:1039E00000000000000000000000000000000000D7
:1039F0000000000000000000000000000000070FB1
:103A00000F0F0F0F0707070303030101000000005A
:103A100000000000000000000000000000000000A6
:103A2000000000E0E0E0C000008080C0C0FEFEC0FA
:103A3000C080800000C0E0E0E000000000000080E6
:103A400080808080E1F9FD1E0F0703010101010163
:103A50000103070F1EFDF9E18080808080000001D6
:103A600001010101879FBF78F0E0C08080808080E5
:103A700080C0E0F078BF9F870101010101000000D4
:103A8000000000070707030000010103037F7F0315
:103A90000301010000030707070000000000000009
:103AA0000000000000000000000000000EFEFEFE0E
:103AB000FE1E3C3C7CF8F0F0E0C0800000000000FE
:103AC0000000000000000000000000C0F0FFFF3F09
:103AD0000F000000000000030FFFFFFEF0000010C9
:103AE00070F0F8F8F8783C3C3E1E0F0F070300001A
:103AF0000000000000000080E0FFFF7F0F000000DA
:103B0000000103070F1F1E3E3C787878787878789C
:103B100078783C3C3E1E1F0F0703010000000000A8
:103B20000000C08000000010008080C0C0DEDEC049
:103B30008080001800000080C0400000000000806D
:103B400088888001E1F81C0603E1F1F0F8F8F8F04C
:103B5000F0E103030EFCF101808088800000000189
:103B600001190100030F3860C0C78F0F0F7F0F0FBF
:103B70008F87C060381F070001191901000000007D
:103B8000000000000000000000031F1D1515151D9A
:103B90001F03000000000000000000000000000003
:103BA00000000000000080C060303018181818189D
:103BB00018303060C08000000000000000000000ED
:103BC00000000000003EFFC10000000000E0E00037
:103BD00000000000C1FF3C000000000000000000E9
:103BE000000000000000000307FCF0A0A0BFBFA081
:103BF000A0F0FE070300000000000000000000002D
:103C00000000000000000000000F1F1F1F1F1F1FEB
:103C10001F1F0F0000000000000000000000000057
:103C20000000000000000000000000000000000094
:103C30000000000000000000000000000000000084
:103C40000000000000000000000000000000000074
:103C50000000000000000000000000000000000064
:103C6000000000000000000000000000000080C014
:103C7000E0F0F8FCFCFEFEFE7F7F3F3F3F3F3F3F12
:103C80003F3F7F7FFEFEFEFCFCF8F0E0C0800000BE
:103C90000000000000000000000000000000000024
:103CA0000000000000008080C0C0E0F8FEFFFFFFC1
:103CB000FF3F0F03030100000000000000000000B0
:103CC0000000000000000103030F3FFFFFFFFFFEA5
:103CD000F8E0C0C08080000000000000000000C0CC
:103CE000E0F0F8FCFEFFFF7F3F1F1F0F0F0F87C3A1
:103CF000E0E0E0E0E0E0E0E0E0C0000080C0C0E044
:103D0000E0E0E0E0C0C080000000000003070F0F0B
:103D10000F1F1F3F7FFFFFFEFCF8F0E0C000FEFF1B
:103D2000FFFFFFFF07010000000000FCFEFFFFFF98
:103D300087030303030303030100F8FFFFFFFF07EB
:103D400003030307FFFFFFFFFE00C0E0F0F0F0E019
:103D5000C000000000000107FFFFFFFFFFFE1F7F04
:103D6000FFFFFFFFFCE0C08000000001030F0F1FFA
:103D70003F3F3E3E3E3E3E3E3C1C01070F1F3F3F45
:103D80003C7C7E3E3F1F0F070330797D7F7F7F7F26
:103D90007B38000080C0E0FCFFFFFFFF7F1F0000BA
:103DA0000003070F1F1F3F7F7FFEFEFEFCFCFCFC95
:103DB000FCFCFCFCFCFCFCFCFCFCFCFCFCFCFCFC43
:103DC000FCFCFCFCFCFCFCFCFCFCFCFCFCFCFCFC33
:103DD000FEFEFE7F7F3F1F1F0F0703000000000055
:103DE00000000000000000000000000000000000D3
:103DF00000000000000000000000000000000000C3
:103E000000000000000000000000000000000000B2
:103E100000000000000000000000000000000000A2
:103E200000000000000080C0E0E0F0F070707070F2
:103E3000F0F0E0E0C080000000000000000080C062
:103E4000E0F0F8787C3FBFCFC3C1C0C00080C0C0E5
:103E5000C08001030F3F3F7C78F8F0E0C0807FFF17
:103E6000FFF180001E3F7F7B717171711F3F7F7179
:103E7000717F3F7E7C7C7C780080F1FFFF7F0001BA
:103E80000307070F0F0F0E0E0E0E0E0E0E0E0E0E68
:103E90000E0E0E0E0E0E0F0F0F070703010000008F
:103EA000000000000000003070E0400080BCBC80DA
:103EB0000040E07030100000000000000000000032
:103EC0000000000206060606F0FEFE0303030303DD
:103ED00003FFFCF00E0E06060600000000000000C6
:103EE00000000000000030383B3B3B3B3B3B3B3B92
:103EF0003B3B3B3B3830000000000000000000006E
:103F000000000000000000000000000000000000B1
:103F100000000000000000000000000000000000A1
:103F20000000000000000000000000008080808091
:103F30000000000000000000000000000000000081
:103F40000000000000000000F0FEFE030303030376
:103F500003FFFCF000000000000000000000000073
:103F600000000000000030383B3B3B3B3B3B3B3B11
:103F70003B3B3B3B383000000000000000000000ED
:103F80000000000000000000000000000000000031
:103F90000000000000000000000000000000000021
:103FA000000080E0F0783C1C1E0E0E0707E7F7F7D4
:103FB000F7FFEE1E1C3C78F0E0C00000000000009F
:103FC00000FEFFFFC1E0F0F8F8F8F87838D1DFBF65
:103FD000BF9F0F0000000001DFFFFF000000000096
:103FE00000030F1F3D7BF7E3C381808000070F1F95
:103FF0009FBFBFFFDFEEF87C3F0F0700000000000F
:104000000000000000000001E3E3E3E3F7FFFFFF2F
:10401000E7E3E3E3E100000000000000000000002F
:1040200000000000C0E0703C1C0C060602FEFEFE14
:10403000FE7E06061E1C7860E00000000000000006
:104040000000003CFF397C7C7C3C3C383CFFFBFFA3
:10405000273C3C3C3E3E3E3EFFFF0000000000008F
:1040600000000000030F1E383860E0E0C0FFFFFFD3
:10407000FFD8E06070301C0E0F010000000000004F
:1040800000000000F0F0F8E8C8C8C8CCCFCFCFCF10
:10409000CFCFC8C8C8C8E8F8F00000000000000092
:1040A00000000000C0E0703C2C7CFEFEFEFEC60658
:1040B00006060684CCFCF860E0C0000000000000AA
:1040C000000000FFFF01C0C0E0E0F1F3FF47FFDEAA
:1040D000C4FE9F0F0F07070383FF000000000000CE
:1040E0000000000003070F3F776363C1C0C0C1CF6A
:1040F000DFDF5F7E7E781C0E0703000000000000FB
:104100000000000060F0F8E8C8C8C8CCCFCFCFCF1F
:10411000CFCFCCC8C8E8E8F870000000000000006D
:1041200000000000F0F0381C0C0C1C18183030187F
:10413000181C0C0C1C38F0F000000000000000E01F
:10414000F030381C0F070000E0F0781C1C0C0C1C31
:104150001C78F0E00000070F1C3830F0E00000078A
:104160000F0C1C38F0E00000070F1E3838303038D4
:10417000381E0F070000E0F0381C1C0F070000007D
:10418000000000000F1F1C383030381C1C1C1C1C89
:104190001C383030381C1F0F0000000000000000E9
:1041A000000000000000000000000000000080C0CF
:1041B000C0E0E0F070F0F0E0C0808080000000001F
:1041C000808080C0E0F0F0F0F0E0E0C0C08000004F
:1041D00000000000000000000000000000000000DF
:1041E000000000000000000000000CFEFFFF0703BD
:1041F0000301000000000103030307070707070787
:104200000707030303010000000101030307FFFF89
:10421000FE0C000000000000000000000000000094
:1042200000000000000080C0E0F8FE7F3F0F0000AB
:1042300000000000000080C0E0E0E0F0F0F0F0F0EE
:10424000F0E0E0E0C08000000000000000000F3F50
:104250007FFEF8E0C08000000000000000000000C9
:1042600000FCFEFF3F0F07070301000000000000F5
:104270000000E0FCFEFF3F0F03030101000000000F
:10428000010103030F3FFFFEFCE0000000000000FF
:104290000000010307070F3FFEFEFC0000000000C6
:1042A000007F7FFFFCF0F0E0C0C080000000000055
:1042B0000000073F7FFFFCF0C0C0808000000000CE
:1042C0008080C0C0F0FCFF7F3F07000000000000BE
:1042D0000080C0C0E0F0F0FCFF7F3F000000000065
:1042E0000000000000010103071F7FFFFCF0000039
:1042F00000000000000001030707070F0F0F0F0F5A
:104300000F07070703010000000000000000F0FC99
:10431000FF7F1F07030101000000000000000000F4
:1043200000000000000000000000307FFFFFE0E020
:10433000C0808000000080C0C0E0E0E0E0E0E0E09D
:10434000E0E0E0C0C0800000008080C0E0E0FFFF4F
:104350007F300000000000000000000000000000AE
:104360000000000000000000000000000000010349
:104370000307070F0E0F0F070301010100000101E2
:1043800001010303070F0F0F0F07070303010100CC
:10439000000000000000000000000000000000001D
:1043A000000000000000000000000000000000000D
:1043B00000000000000000000000000000000000FD
:1043C00000000000000000000000000000000000ED
:1043D00000000000000000000000000000000000DD
:1043E00000000000000000000000000000FEFEFED3
:1043F000FE3E3E3E3E3E3E3E3E3E3E3E3E3E3E3E1D
:104400003E3E3E3E3EFEFEFEFE000000000000007E
:10441000000000000000000000000000000000009C
:10442000000000000000000000000000003F3F3FCF
:104430003FFCFCFCFC3C3C3C3C3C3C3C3C3C3C3CB9
:104440003CFCFCFCFC3F3F3F1F0000000000000064
:10445000000000000000000000000000000000005C
:10446000000000000000000000000000000000004C
:1044700000FFFFFFFF000000000000000000000040
:1044800000FFFFFFFFF0F0F0F0FFFFFFFF0F0FFF57
:10449000FFFFFFFE00000000000000000000000021
:1044A000000000000000000000000000000000000C
:1044B00000FFFFFFFF000000000000000000000000
:1044C00000F0F0F0F0F0F0F0F0FFFFFFFF0000FF71
:1044D000FFFFFFFF000000000000000000000000E0
:1044E00000000000000000000000000000000000CC
:1044F00000FFFFFFFF0000000000000000000000C0
:1045000000FFFFFFFF000000000F0F0F0F0F0F0F46
:104510000F0F0F0700000000000000000000000067
:10452000000000000000000000000000000000008B
:104530000003030301000000000000000000000071
:104540000003030301000000000000000000000061
:10455000000000000000000000000000000000005B
:10456000000000000000000000000000000000004B
:10457000000000000000000000000000000000003B
:10458000000000000000000000000000000000002B
:10459000000000000000000000000000000000001B
:1045A000000000000000000000000000000000000B
:1045B00000000000000000000000000000000000FB
:1045C00000000000000000000000000000000000EB
:1045D00000000000000000000000000000000000DB
:1045E0000000FCFCFCFC7C7C7C7C7C7C7C7C7C7C03
:1045F0007C7C7C7C7C7C7C7C7C7CFCFCFCFC0000F3
:1046000000000000000000000000000000000000AA
:10461000000000000000000000000000000000009A
:1046200000007F7F7F7FF8F8F8F8787878787878DE
:10463000787878787878F8F8F8F87F7F7F3F00000E
:10464000000000000000000000000000000000006A
:10465000000000000000000000000000000000005A
:10466000000000000000FFFFFFFF0000000000004E
:10467000000000000000FFFFFFFFE0E0E0E0FEFEC2
:10468000FEFE1E1EFEFEFEFEFC00000080E0FC188A
:1046900038307060E0C080000000000000000000C2
:1046A000000000000000FFFFFFFF0000000000000E
:1046B000000000000000E1E1E1E1E1E1E1E1FFFFF4
:1046C000FFFF0000FFFFFFFFFF0000F8FFC7C0C0B3
:1046D00080C0C0C0C0E1E1E3EEFCF80000000000D3
:1046E000000000000000FFFFFFFF000000000000CE
:1046F000000000000000FFFFFFFF010101011F1F7C
:104700001F1F1E1E1F1F1F1F0F000003070F1B3F31
:104710003F3F3F3F3F3F1F1F0D07010000000000CC
:104720000000000000000707070300000000000071
:104730000000000000000707070300000000000061
:104740000000000000000000000000007FFF830365
:10475000038383C3E6E6FC7CF00000000000000059
:104760000000000000000000000000000000000049
:104770000000000000000000000000000000000039
:104780000000000000000000000000000003070F10
:104790000F1F1F1F1F0F0703010000000000000074
:1047A000008080C0C0E0E0E0F0F0F0F0F0F0F0F069
:1047B000F0F0F0F0E0E0E0C0C080800000000C1EEF
:1047C0003F3F1F0F0F87C7C3E3E3E1F1F1F1F1F1C1
:1047D000F1E1E3E3C3C7870F0F1F3F3F1E0C00004B
:1047E00000000002070F1F0F0787C3C3E3E3E3E3E3
:1047F000C3C387070F1F0F0702000000000000005F
:10480000000000000000000000000103070F0F0778
:104810000301000000000000000000000000000094
:104820000000000000000000000000000000000088
:104830000000000000000000000000000000000078
:104840000000000000000000000000000000000068
:104850000000000000000000000000000000000058
:10486000000000000080C0C0E0E0F0F0F8F8FCFCC0
:10487000FCFEFEFEFEFFFFFFFFFFFFFFFFFFFFFF4F
:10488000FFFFFFFFFFFFFFFEFEFEFEFCFCFCF8F853
:10489000F0F0E0E0C0C0800000000000000060F028
:1048A000F8FCFEFFFFFFFFFFFFFF7F7F3F3F1F0F73
:1048B0000F0F0707070303030303030301010101AC
:1048C000030303030303030707070F0F0F1F3F3FF4
:1048D0007F7FFFFFFFFFFFFFFFFEFCF8F06000009F
:1048E00001070F1F0F0F07030100000080C0C0E089
:1048F000E0F0F0F8F8FCFCFCFCFEFEFEFEFEFEFE26
:10490000FEFEFEFCFCFCFCF8F8F0F0E0E0C0C0802D
:104910000000000103070F0F1F0F07010000000038
:10492000000000000000000000040E1F3F7FFFFF9A
:10493000FFFF7F3F1F1F0F0F0F070707070707071F
:104940000707070F0F0F1F1F3F7FFFFFFFFF7F3F6F
:104950001F0E040000000000000000000000000026
:104960000000000000000000000000000000000146
:104970000000000000C0E0F0F0F8F8F8F8F8F8F8EF
:10498000F8F8F8F0F0E0C0000000000001000000BE
:104990000000000000000000000000000000000017
:1049A0000000000000000000000000000000000007
:1049B0000000000000000103070F1F3F7FFFFF7F83
:1049C0003F1F0F070301000000000000000000006F
:1049D00000000000000000000000000000000000D7
:1049E00000000000000000000000000000000000C7
:1049F00000000000000000000000000000000000B7
:104A000000000000000000000000000000000000A6
:104A10000000000000000000000000000000000096
:104A20000000000000000000000000000000000086
:104A300000000000008080808080808080808080F6
:104A40008080808080800000000000000000000066
:104A50000000000000000000000000000000000056
:104A60000000000000000080C0E0E0F0F8F8FC7CEE
:104A70007E3E3E1F1F1F0F0F0F0F07070707070779
:104A800007070F0F0F0F1F1F1F3F3E7E7CFCF8F81C
:104A9000F0F0E0C0C0800000000000000000000056
:104AA00000E0F0F8FCFE7F3F1F0F0703010080C00D
:104AB000E0E0F0F0F8F8F8FC7C7C7C7E3E3E3E3E88
:104AC0003E7C7C7C7CF8F8F8F0F0E0E0C0800001EF
:104AD0000303070F1F7FFFFEFCF0E0000000000053
:104AE000000303030100000000E0F8FCFEFF3F1F8D
:104AF0000F070303010080C0C0E0E0E0F0F0F0F039
:104B0000E0E0E0E0C0C080010103070F1F3F7FFE2F
:104B1000FCF8E000000000010303010000000000B9
:104B20000000000000000000000001010100000082
:104B30000000F8FCFEFF3F0F070703010101010120
:104B4000010303070F3F7FFFFEF800000000000095
:104B50000101000000000000000000000000000053
:104B60000000000000000000000000000000000045
:104B7000000000000000183C7EFCFCF8F0E0C0E003
:104B8000F0F8FCFE7C3C000000000000000000008B
:104B90000000000000000000000000000000000015
:104BA0000000000000000000000000000000000005
:104BB000000000000000C0E0F0F8FDFF7F3F1F3F55
:104BC0007FFDFDF8F0E000000000000000000000A4
:104BD00000000000000000000000000000000000D5
:104BE00000000000000000000000000000000000C5
:104BF00000000000000000010101010000000000B1
:104C000000000101010100000000000000000000A0
:104C10000000000000000000000000000000000094
:104C2000404C00080000002034000000FC14000884
:104C3000744C000834000020740400000C150008B7
:104C40000000000000000000000000000000000064
:104C50000000000000000000000000000000000054
:104C60000000000001020304010203040607080912
:044C7000020406082C
:04000005080000ED02
:00000001FF
